{
  "address": "0x4af8A0605De0B5390D67EC3dE8900944D7f6200b",
  "abi": [
    {
      "inputs": [
        {
          "internalType": "address",
          "name": "_minter",
          "type": "address"
        }
      ],
      "stateMutability": "nonpayable",
      "type": "constructor"
    },
    {
      "anonymous": false,
      "inputs": [
        {
          "indexed": true,
          "internalType": "address",
          "name": "owner",
          "type": "address"
        },
        {
          "indexed": true,
          "internalType": "address",
          "name": "approved",
          "type": "address"
        },
        {
          "indexed": true,
          "internalType": "uint256",
          "name": "tokenId",
          "type": "uint256"
        }
      ],
      "name": "Approval",
      "type": "event"
    },
    {
      "anonymous": false,
      "inputs": [
        {
          "indexed": true,
          "internalType": "address",
          "name": "owner",
          "type": "address"
        },
        {
          "indexed": true,
          "internalType": "address",
          "name": "operator",
          "type": "address"
        },
        {
          "indexed": false,
          "internalType": "bool",
          "name": "approved",
          "type": "bool"
        }
      ],
      "name": "ApprovalForAll",
      "type": "event"
    },
    {
      "anonymous": false,
      "inputs": [
        {
          "indexed": true,
          "internalType": "bytes3",
          "name": "color",
          "type": "bytes3"
        },
        {
          "indexed": true,
          "internalType": "uint256",
          "name": "chubbiness",
          "type": "uint256"
        },
        {
          "indexed": true,
          "internalType": "uint256",
          "name": "mouthLength",
          "type": "uint256"
        }
      ],
      "name": "LoogieCreated",
      "type": "event"
    },
    {
      "anonymous": false,
      "inputs": [
        {
          "indexed": true,
          "internalType": "address",
          "name": "minter",
          "type": "address"
        }
      ],
      "name": "MinterUpdated",
      "type": "event"
    },
    {
      "anonymous": false,
      "inputs": [
        {
          "indexed": true,
          "internalType": "address",
          "name": "previousOwner",
          "type": "address"
        },
        {
          "indexed": true,
          "internalType": "address",
          "name": "newOwner",
          "type": "address"
        }
      ],
      "name": "OwnershipTransferred",
      "type": "event"
    },
    {
      "anonymous": false,
      "inputs": [
        {
          "indexed": true,
          "internalType": "address",
          "name": "from",
          "type": "address"
        },
        {
          "indexed": true,
          "internalType": "address",
          "name": "to",
          "type": "address"
        },
        {
          "indexed": true,
          "internalType": "uint256",
          "name": "tokenId",
          "type": "uint256"
        }
      ],
      "name": "Transfer",
      "type": "event"
    },
    {
      "inputs": [
        {
          "internalType": "address",
          "name": "to",
          "type": "address"
        },
        {
          "internalType": "uint256",
          "name": "tokenId",
          "type": "uint256"
        }
      ],
      "name": "approve",
      "outputs": [],
      "stateMutability": "nonpayable",
      "type": "function"
    },
    {
      "inputs": [
        {
          "internalType": "address",
          "name": "owner",
          "type": "address"
        }
      ],
      "name": "balanceOf",
      "outputs": [
        {
          "internalType": "uint256",
          "name": "",
          "type": "uint256"
        }
      ],
      "stateMutability": "view",
      "type": "function"
    },
    {
      "inputs": [
        {
          "internalType": "uint256",
          "name": "tokenId",
          "type": "uint256"
        }
      ],
      "name": "burnItem",
      "outputs": [],
      "stateMutability": "nonpayable",
      "type": "function"
    },
    {
      "inputs": [
        {
          "internalType": "uint256",
          "name": "",
          "type": "uint256"
        }
      ],
      "name": "chubbiness",
      "outputs": [
        {
          "internalType": "uint256",
          "name": "",
          "type": "uint256"
        }
      ],
      "stateMutability": "view",
      "type": "function"
    },
    {
      "inputs": [
        {
          "internalType": "uint256",
          "name": "",
          "type": "uint256"
        }
      ],
      "name": "color",
      "outputs": [
        {
          "internalType": "bytes3",
          "name": "",
          "type": "bytes3"
        }
      ],
      "stateMutability": "view",
      "type": "function"
    },
    {
      "inputs": [
        {
          "internalType": "uint256",
          "name": "tokenId",
          "type": "uint256"
        }
      ],
      "name": "getApproved",
      "outputs": [
        {
          "internalType": "address",
          "name": "",
          "type": "address"
        }
      ],
      "stateMutability": "view",
      "type": "function"
    },
    {
      "inputs": [],
      "name": "getCurrentToken",
      "outputs": [
        {
          "internalType": "uint256",
          "name": "",
          "type": "uint256"
        }
      ],
      "stateMutability": "view",
      "type": "function"
    },
    {
      "inputs": [
        {
          "internalType": "address",
          "name": "owner",
          "type": "address"
        },
        {
          "internalType": "address",
          "name": "operator",
          "type": "address"
        }
      ],
      "name": "isApprovedForAll",
      "outputs": [
        {
          "internalType": "bool",
          "name": "",
          "type": "bool"
        }
      ],
      "stateMutability": "view",
      "type": "function"
    },
    {
      "inputs": [],
      "name": "mintItem",
      "outputs": [
        {
          "internalType": "uint256",
          "name": "",
          "type": "uint256"
        }
      ],
      "stateMutability": "nonpayable",
      "type": "function"
    },
    {
      "inputs": [],
      "name": "minter",
      "outputs": [
        {
          "internalType": "address",
          "name": "",
          "type": "address"
        }
      ],
      "stateMutability": "view",
      "type": "function"
    },
    {
      "inputs": [
        {
          "internalType": "uint256",
          "name": "",
          "type": "uint256"
        }
      ],
      "name": "mouthLength",
      "outputs": [
        {
          "internalType": "uint256",
          "name": "",
          "type": "uint256"
        }
      ],
      "stateMutability": "view",
      "type": "function"
    },
    {
      "inputs": [],
      "name": "name",
      "outputs": [
        {
          "internalType": "string",
          "name": "",
          "type": "string"
        }
      ],
      "stateMutability": "view",
      "type": "function"
    },
    {
      "inputs": [],
      "name": "owner",
      "outputs": [
        {
          "internalType": "address",
          "name": "",
          "type": "address"
        }
      ],
      "stateMutability": "view",
      "type": "function"
    },
    {
      "inputs": [
        {
          "internalType": "uint256",
          "name": "tokenId",
          "type": "uint256"
        }
      ],
      "name": "ownerOf",
      "outputs": [
        {
          "internalType": "address",
          "name": "",
          "type": "address"
        }
      ],
      "stateMutability": "view",
      "type": "function"
    },
    {
      "inputs": [
        {
          "internalType": "uint256",
          "name": "id",
          "type": "uint256"
        }
      ],
      "name": "renderTokenById",
      "outputs": [
        {
          "internalType": "string",
          "name": "",
          "type": "string"
        }
      ],
      "stateMutability": "view",
      "type": "function"
    },
    {
      "inputs": [],
      "name": "renounceOwnership",
      "outputs": [],
      "stateMutability": "nonpayable",
      "type": "function"
    },
    {
      "inputs": [
        {
          "internalType": "address",
          "name": "from",
          "type": "address"
        },
        {
          "internalType": "address",
          "name": "to",
          "type": "address"
        },
        {
          "internalType": "uint256",
          "name": "tokenId",
          "type": "uint256"
        }
      ],
      "name": "safeTransferFrom",
      "outputs": [],
      "stateMutability": "nonpayable",
      "type": "function"
    },
    {
      "inputs": [
        {
          "internalType": "address",
          "name": "from",
          "type": "address"
        },
        {
          "internalType": "address",
          "name": "to",
          "type": "address"
        },
        {
          "internalType": "uint256",
          "name": "tokenId",
          "type": "uint256"
        },
        {
          "internalType": "bytes",
          "name": "data",
          "type": "bytes"
        }
      ],
      "name": "safeTransferFrom",
      "outputs": [],
      "stateMutability": "nonpayable",
      "type": "function"
    },
    {
      "inputs": [
        {
          "internalType": "address",
          "name": "operator",
          "type": "address"
        },
        {
          "internalType": "bool",
          "name": "approved",
          "type": "bool"
        }
      ],
      "name": "setApprovalForAll",
      "outputs": [],
      "stateMutability": "nonpayable",
      "type": "function"
    },
    {
      "inputs": [
        {
          "internalType": "address",
          "name": "_minter",
          "type": "address"
        }
      ],
      "name": "setMinter",
      "outputs": [],
      "stateMutability": "nonpayable",
      "type": "function"
    },
    {
      "inputs": [
        {
          "internalType": "bytes4",
          "name": "interfaceId",
          "type": "bytes4"
        }
      ],
      "name": "supportsInterface",
      "outputs": [
        {
          "internalType": "bool",
          "name": "",
          "type": "bool"
        }
      ],
      "stateMutability": "view",
      "type": "function"
    },
    {
      "inputs": [],
      "name": "symbol",
      "outputs": [
        {
          "internalType": "string",
          "name": "",
          "type": "string"
        }
      ],
      "stateMutability": "view",
      "type": "function"
    },
    {
      "inputs": [
        {
          "internalType": "uint256",
          "name": "index",
          "type": "uint256"
        }
      ],
      "name": "tokenByIndex",
      "outputs": [
        {
          "internalType": "uint256",
          "name": "",
          "type": "uint256"
        }
      ],
      "stateMutability": "view",
      "type": "function"
    },
    {
      "inputs": [
        {
          "internalType": "address",
          "name": "owner",
          "type": "address"
        },
        {
          "internalType": "uint256",
          "name": "index",
          "type": "uint256"
        }
      ],
      "name": "tokenOfOwnerByIndex",
      "outputs": [
        {
          "internalType": "uint256",
          "name": "",
          "type": "uint256"
        }
      ],
      "stateMutability": "view",
      "type": "function"
    },
    {
      "inputs": [
        {
          "internalType": "uint256",
          "name": "id",
          "type": "uint256"
        }
      ],
      "name": "tokenURI",
      "outputs": [
        {
          "internalType": "string",
          "name": "",
          "type": "string"
        }
      ],
      "stateMutability": "view",
      "type": "function"
    },
    {
      "inputs": [],
      "name": "totalSupply",
      "outputs": [
        {
          "internalType": "uint256",
          "name": "",
          "type": "uint256"
        }
      ],
      "stateMutability": "view",
      "type": "function"
    },
    {
      "inputs": [
        {
          "internalType": "address",
          "name": "from",
          "type": "address"
        },
        {
          "internalType": "address",
          "name": "to",
          "type": "address"
        },
        {
          "internalType": "uint256",
          "name": "tokenId",
          "type": "uint256"
        }
      ],
      "name": "transferFrom",
      "outputs": [],
      "stateMutability": "nonpayable",
      "type": "function"
    },
    {
      "inputs": [
        {
          "internalType": "address",
          "name": "newOwner",
          "type": "address"
        }
      ],
      "name": "transferOwnership",
      "outputs": [],
      "stateMutability": "nonpayable",
      "type": "function"
    }
  ],
  "transactionHash": "0x461a4069165dc308deb62e3d6b0ee0962bed5cb44b4b48e882317439985db3e0",
  "args": [
    "0x0Fa85d42B92aa0BA788951F7EA9807Bc4Bc72111"
  ],
  "numDeployments": 2,
  "solcInputHash": "589bb9c53c9e9293f9a8e22265c5fe4e",
  "bytecode": "0x608034620003a057601f906001600160401b0390601f1990620031703881900385810184168301858111848210176200038a57839282916040528339602092839181010312620003a057516001600160a01b03948582169491859003620003a0576200006a620003a5565b92600c84526b4461696c794c6f6f6769657360a01b818501526200008d620003a5565b906002825261111360f21b818301528451958487116200038a576000968754966001978881811c911680156200037f575b858210146200036b5790818784931162000318575b508490878311600114620002b7578a92620002ab575b5050600019600383901b1c191690871b1787555b8251948511620002975785548681811c911680156200028c575b8382101462000278579081858796959493116200021f575b5081938511600114620001ba5750508592620001ae575b5050600019600383901b1c191690821b1790555b600a5460018060a01b0319913383831617600a557f8be0079c531659141344cd1fd0a4f28419497f9722a3daafe3b4186f6b6457e0604051953393169180a3600f541617600f55612daa9081620003c68239f35b01519050388062000146565b869593929193168588528388209388905b828210620002055750508411620001eb575b505050811b0190556200015a565b015160001960f88460031b161c19169055388080620001dd565b8484015186558897909501949384019390810190620001cb565b9091929394508688528288208580880160051c8201928589106200026e575b9188978a9297969594930160051c01915b8281106200025f5750506200012f565b8a81558897508991016200024f565b925081926200023e565b634e487b7160e01b88526022600452602488fd5b90607f169062000117565b634e487b7160e01b87526041600452602487fd5b015190503880620000e9565b90848a9416918b8052868c20928c5b88828210620003015750508411620002e7575b505050811b018755620000fd565b015160001960f88460031b161c19169055388080620002d9565b8385015186558d97909501949384019301620002c6565b909150898052848a208780850160051c82019287861062000361575b918b91869594930160051c01915b82811062000352575050620000d3565b8c81558594508b910162000342565b9250819262000334565b634e487b7160e01b8a52602260045260248afd5b90607f1690620000be565b634e487b7160e01b600052604160045260246000fd5b600080fd5b60408051919082016001600160401b038111838210176200038a5760405256fe60806040526004361015610013575b600080fd5b60003560e01c806301ffc9a71461024357806306fdde031461023a5780630754617214610231578063081812fc14610228578063095ea7b31461021f57806318160ddd1461021657806323b872dd1461020d5780632f745c59146102045780633f4f8561146101fb57806342842e0e146101f25780634f6ccce7146101e9578063576cc0f7146101e05780636352211e146101d757806370a08231146101ce578063715018a6146101c55780638da5cb5b146101bc57806395d89b41146101b3578063a22cb465146101aa578063a2d6c6da146101a1578063b88d4fde14610198578063c87b56dd1461018f578063d4e28c9c14610186578063e985e9c51461017d578063eb93406b14610174578063ef2d17461461016b578063f2fde38b14610162578063faa204e1146101595763fca3b5aa1461015157600080fd5b61000e6114a4565b5061000e611477565b5061000e6113ad565b5061000e61138e565b5061000e6111b8565b5061000e61115a565b5061000e611122565b5061000e610cc8565b5061000e610c3e565b5061000e610b61565b5061000e610a74565b5061000e6109b2565b5061000e610988565b5061000e610929565b5061000e6108fd565b5061000e6108de565b5061000e6107ff565b5061000e610753565b5061000e61070b565b5061000e6106de565b5061000e61062a565b5061000e610600565b5061000e6105ac565b5061000e6104d5565b5061000e610478565b5061000e61044e565b5061000e610343565b5061000e61025e565b6001600160e01b031981160361000e57565b503461000e57602036600319011261000e57602060043561027e8161024c565b63ffffffff60e01b1663780e9d6360e01b81149081156102a4575b506040519015158152f35b6380ac58cd60e01b8114915081156102d6575b81156102c5575b5038610299565b6301ffc9a760e01b149050386102be565b635b5e139f60e01b811491506102b7565b60005b8381106102fa5750506000910152565b81810151838201526020016102ea565b90602091610323815180928185528580860191016102e7565b601f01601f1916010190565b90602061034092818152019061030a565b90565b503461000e5760008060031936011261044b57604051908080549060019180831c92808216928315610441575b602092838610851461042d57858852602088019490811561040c57506001146103b4575b6103b0876103a481890382610bf1565b6040519182918261032f565b0390f35b6000805294509192917f290decd9548b62a8d60345a988386fc84ba6bc95484008f6362f93160ef3e5635b8386106103fb57505050910190506103a4826103b03880610394565b8054858701529482019481016103df565b60ff191685525050505090151560051b0190506103a4826103b03880610394565b634e487b7160e01b82526022600452602482fd5b93607f1693610370565b80fd5b503461000e57600036600319011261000e57600f546040516001600160a01b039091168152602090f35b503461000e57602036600319011261000e5760206104976004356116bc565b6040516001600160a01b039091168152f35b600435906001600160a01b038216820361000e57565b602435906001600160a01b038216820361000e57565b503461000e57604036600319011261000e576104ef6104a9565b6024356104fb81611627565b916001600160a01b03808416908216811461055d5761052d9361052891331490811561052f575b5061164a565b611a6f565b005b6001600160a01b0316600090815260056020908152604080832033845290915290205460ff16905038610522565b60405162461bcd60e51b815260206004820152602160248201527f4552433732313a20617070726f76616c20746f2063757272656e74206f776e656044820152603960f91b6064820152608490fd5b503461000e57600036600319011261000e576020600854604051908152f35b606090600319011261000e576001600160a01b0390600435828116810361000e5791602435908116810361000e579060443590565b503461000e5761052d610612366105cb565b916106256106208433611829565b6116fa565b6118fb565b503461000e57604036600319011261000e576106446104a9565b6024359061065181611564565b821015610685576001600160a01b031660009081526006602090815260408083209383529281529082902054915191825290f35b60405162461bcd60e51b815260206004820152602b60248201527f455243373231456e756d657261626c653a206f776e657220696e646578206f7560448201526a74206f6620626f756e647360a81b6064820152608490fd5b503461000e57602036600319011261000e57600435600052600e6020526020604060002054604051908152f35b503461000e5761052d61071d366105cb565b90604051926020840184811067ffffffffffffffff821117610746575b6040526000845261178e565b61074e610b95565b61073a565b503461000e57602036600319011261000e576004356008548110156107a55760086000527ff3f7a9fe364faab93b216da50a3214154f22a0a2b415b23a84c8169e8b636ee30154604051908152602090f35b60405162461bcd60e51b815260206004820152602c60248201527f455243373231456e756d657261626c653a20676c6f62616c20696e646578206f60448201526b7574206f6620626f756e647360a01b6064820152608490fd5b503461000e57602036600319011261000e5760043561082960018060a01b03600f54163314611f56565b6000818152600260205260409020546001600160a01b0316156108a2576108508133611829565b1561085e5761052d906121a7565b606460405162461bcd60e51b815260206004820152602060248201527f43616c6c6572206973206e6f74206f776e6572206e6f7220617070726f7665646044820152fd5b60405162461bcd60e51b8152602060048201526014602482015273151bdad95b88191bd95cc81b9bdd08195e1a5cdd60621b6044820152606490fd5b503461000e57602036600319011261000e576020610497600435611627565b503461000e57602036600319011261000e57602061092161091c6104a9565b611564565b604051908152f35b503461000e5760008060031936011261044b5761094461150c565b600a80546001600160a01b0319811690915581906001600160a01b03167f8be0079c531659141344cd1fd0a4f28419497f9722a3daafe3b4186f6b6457e08280a380f35b503461000e57600036600319011261000e57600a546040516001600160a01b039091168152602090f35b503461000e5760008060031936011261044b576040519080600190815480831c92808216928315610a6a575b602092838610851461042d57858852602088019490811561040c5750600114610a11576103b0876103a481890382610bf1565b600160005294509192917fb10e2d527612073b26eecdfd717e6a320cf44b4afac2b0732d9fcbe2b7fa0cf65b838610610a5957505050910190506103a4826103b03880610394565b805485870152948201948101610a3d565b93607f16936109de565b503461000e57604036600319011261000e57610a8e6104a9565b602435801515810361000e576001600160a01b03821691338314610b1c5781610ad9610aea9233600052600560205260406000209060018060a01b0316600052602052604060002090565b9060ff801983541691151516179055565b604051901515815233907f17307eab39ab6107e8899845ad3d59bd9653f200f220920489ca2b5937696c3190602090a3005b60405162461bcd60e51b815260206004820152601960248201527f4552433732313a20617070726f766520746f2063616c6c6572000000000000006044820152606490fd5b503461000e57602036600319011261000e576103b0610b8160043561262f565b60405191829160208352602083019061030a565b50634e487b7160e01b600052604160045260246000fd5b6040810190811067ffffffffffffffff821117610bc857604052565b610bd0610b95565b604052565b6060810190811067ffffffffffffffff821117610bc857604052565b90601f8019910116810190811067ffffffffffffffff821117610bc857604052565b60209067ffffffffffffffff8111610c31575b601f01601f19160190565b610c39610b95565b610c26565b503461000e57608036600319011261000e57610c586104a9565b610c606104bf565b6064359167ffffffffffffffff831161000e573660238401121561000e57826004013591610c8d83610c13565b92610c9b6040519485610bf1565b808452366024828701011161000e57602081600092602461052d980183880137850101526044359161178e565b503461000e57602036600319011261000e576004356000818152600260205260409020546001600160a01b03161515610d0090612268565b610d09816122e9565b604051674c6f6f676965202360c01b60208201529190829060288201610d2e916122a0565b0391601f19928381018252610d439082610bf1565b610d5782600052600c602052604060002090565b5460e81b610d6490612cbb565b91610d7981600052600d602052604060002090565b54610d8390612b2e565b92610d9882600052600e602052604060002090565b54610da290612b2e565b6040517f54686973204c6f6f6769652069732074686520636f6c6f7220230000000000006020820152948592603a8401610ddb916122a0565b750103bb4ba3410309031b43ab13134b732b9b99037b3160551b8152601601610e03916122a0565b7401030b7321036b7baba34103632b733ba341037b31605d1b8152601501610e2a916122a0565b6221212160e81b8152600301038481018452610e469084610bf1565b610e4f81612593565b610e58906124aa565b90610e62816122e9565b90610e7781600052600c602052604060002090565b5460e81b610e8490612cbb565b610e9882600052600d602052604060002090565b54610ea290612b2e565b90610eb783600052600e602052604060002090565b54610ec190612b2e565b92610ecb90611627565b610edd906001600160a01b0316612c1d565b604051683d913730b6b2911d1160b91b602082015297889791959160298901610f05916122a0565b71111610113232b9b1b934b83a34b7b7111d1160711b8152601201610f29916122a0565b7f222c202265787465726e616c5f75726c223a2268747470733a2f2f6461696c798152716c6f6f676965732e636f6d2f746f6b656e2f60701b6020820152603201610f73916122a0565b7f222c202261747472696275746573223a205b7b2274726169745f74797065223a8152742022636f6c6f72222c202276616c7565223a20222360581b6020820152603501610fc0916122a0565b7f227d2c7b2274726169745f74797065223a20226368756262696e657373222c208152680113b30b63ab2911d160bd1b6020820152602901611001916122a0565b7f7d2c7b2274726169745f74797065223a20226d6f7574684c656e677468222c208152680113b30b63ab2911d160bd1b6020820152602901611042916122a0565b6c3eae96101137bbb732b9111d1160991b8152600d01611061916122a0565b6c1116101134b6b0b3b2911d101160991b8152600d017f646174613a696d6167652f7376672b786d6c3b6261736536342c0000000000008152601a016110a6916122a0565b61227d60f01b81526002010382810182526110c19082610bf1565b6110ca906124aa565b6040517f646174613a6170706c69636174696f6e2f6a736f6e3b6261736536342c000000602082015291908290603d8201611104916122a0565b0390810182526111149082610bf1565b6040516103b081928261032f565b503461000e57602036600319011261000e57600435600052600c602052602060406000205460e81b6040519062ffffff60e81b168152f35b503461000e57604036600319011261000e57602060ff6111ac61117b6104a9565b6111836104bf565b6001600160a01b0391821660009081526005865260408082209290931681526020919091522090565b54166040519015158152f35b503461000e5760008060031936011261044b577f23b0c9bd8006f5b1f1088d6b60e79309f7e2e80a3ef3ddf40487de30faa515e39061120260018060a01b03600f54163314611f56565b6112106001600b5401600b55565b6103b0600b546112208133612097565b6113156113106112c761123243611d52565b4060405161126281611254602082019489869091604092825260208201520190565b03601f198101835282610bf1565b5190206000858152600c602052604090206112b59082891a60f81b6001600160f81b031916600184901a60f01b60ff60f01b1617600284901a60e81b60ff60e81b161760e81c62ffffff19825416179055565b6112d36112ce6112c78360031a611fa2565b60ff900490565b612005565b6112e786600052600d602052604060002090565b556113066112ff86600052600d602052604060002090565b5460021c90565b9060041a90611ff2565b612013565b61132982600052600e602052604060002090565b5561134861134182600052600c602052604060002090565b5460e81b90565b9261135d82600052600d602052604060002090565b5461137283600052600e602052604060002090565b549160405196879662ffffff60e81b169180a482526020820190565b503461000e57600036600319011261000e576020600b54604051908152f35b503461000e57602036600319011261000e576113c76104a9565b6113cf61150c565b6001600160a01b0390811690811561142357600a54826bffffffffffffffffffffffff60a01b821617600a55167f8be0079c531659141344cd1fd0a4f28419497f9722a3daafe3b4186f6b6457e0600080a3005b60405162461bcd60e51b815260206004820152602660248201527f4f776e61626c653a206e6577206f776e657220697320746865207a65726f206160448201526564647265737360d01b6064820152608490fd5b503461000e57602036600319011261000e57600435600052600d6020526020604060002054604051908152f35b503461000e57602036600319011261000e576114be6104a9565b6114c661150c565b600f80546001600160a01b0319166001600160a01b039290921691821790557fad0f299ec81a386c98df0ac27dae11dd020ed1b56963c53a7292e7a3a314539a600080a2005b600a546001600160a01b0316330361152057565b606460405162461bcd60e51b815260206004820152602060248201527f4f776e61626c653a2063616c6c6572206973206e6f7420746865206f776e65726044820152fd5b6001600160a01b0316801561158457600052600360205260406000205490565b60405162461bcd60e51b815260206004820152602960248201527f4552433732313a2061646472657373207a65726f206973206e6f7420612076616044820152683634b21037bbb732b960b91b6064820152608490fd5b156115e257565b60405162461bcd60e51b815260206004820152601860248201527f4552433732313a20696e76616c696420746f6b656e20494400000000000000006044820152606490fd5b6000908152600260205260409020546001600160a01b03166103408115156115db565b1561165157565b60405162461bcd60e51b815260206004820152603d60248201527f4552433732313a20617070726f76652063616c6c6572206973206e6f7420746f60448201527f6b656e206f776e6572206f7220617070726f76656420666f7220616c6c0000006064820152608490fd5b6000818152600260205260409020546116df906001600160a01b031615156115db565b6000908152600460205260409020546001600160a01b031690565b1561170157565b60405162461bcd60e51b815260206004820152602d60248201527f4552433732313a2063616c6c6572206973206e6f7420746f6b656e206f776e6560448201526c1c881bdc88185c1c1c9bdd9959609a1b6064820152608490fd5b604051906020820182811067ffffffffffffffff821117611781575b60405260008252565b611789610b95565b611778565b906117b29392916117a26106208433611829565b6117ad8383836118fb565b611b49565b156117b957565b60405162461bcd60e51b8152806117d2600482016117d6565b0390fd5b60809060208152603260208201527f4552433732313a207472616e7366657220746f206e6f6e20455243373231526560408201527131b2b4bb32b91034b6b83632b6b2b73a32b960711b60608201520190565b6001600160a01b038061183b84611627565b169281831692848414948515611871575b5050831561185b575b50505090565b611867919293506116bc565b1614388080611855565b60009081526005602090815260408083206001600160a01b03949094168352929052205460ff169350388061184c565b156118a857565b60405162461bcd60e51b815260206004820152602560248201527f4552433732313a207472616e736665722066726f6d20696e636f72726563742060448201526437bbb732b960d91b6064820152608490fd5b61191f9061190884611627565b6001600160a01b03828116939091821684146118a1565b8316928315611a1e5761199d8261193a87846119f796611c23565b61195c8561195661194a8a611627565b6001600160a01b031690565b146118a1565b611983611973886000526004602052604060002090565b80546001600160a01b0319169055565b6001600160a01b0316600090815260036020526040902090565b80546000190190556001600160a01b0381166000908152600360205260409020600181540190556119d8856000526002602052604060002090565b80546001600160a01b0319166001600160a01b03909216919091179055565b7fddf252ad1be2c89b69c2b068fc378daa952ba7f163c4a11628f55a4df523b3ef600080a4565b60405162461bcd60e51b8152602060048201526024808201527f4552433732313a207472616e7366657220746f20746865207a65726f206164646044820152637265737360e01b6064820152608490fd5b600082815260046020526040902080546001600160a01b0319166001600160a01b0383161790556001600160a01b0380611aa884611627565b169116907f8c5be1e5ebec7d5bd14f71427d1e84f3dd0314c0f7b2291e5b200ac8c7c3b925600080a4565b9081602091031261000e57516103408161024c565b6001600160a01b0391821681529116602082015260408101919091526080606082018190526103409291019061030a565b3d15611b44573d90611b2a82610c13565b91611b386040519384610bf1565b82523d6000602084013e565b606090565b92909190823b15611c0357611b7c926020926000604051809681958294630a85bd0160e11b9a8b85523360048601611ae8565b03926001600160a01b03165af160009181611bd3575b50611bc557611b9f611b19565b80519081611bc05760405162461bcd60e51b8152806117d2600482016117d6565b602001fd5b6001600160e01b0319161490565b611bf591925060203d8111611bfc575b611bed8183610bf1565b810190611ad3565b9038611b92565b503d611be3565b50505050600190565b50634e487b7160e01b600052603260045260246000fd5b9091906001600160a01b038082169182611c685750611c4183611cc2565b831680611c56575050611c549150611e40565b565b03611c5f575050565b611c5491611c8a565b838286168403611c7a575b5050611c41565b611c8391611d79565b3883611c73565b604090611c9681611564565b9260009160018060a01b0316825260066020528282208483526020528083832055815260076020522055565b6008548160005260096020528060406000205568010000000000000000811015611d2e575b6001810180600855811015611d21575b60086000527ff3f7a9fe364faab93b216da50a3214154f22a0a2b415b23a84c8169e8b636ee30155565b611d29611c0c565b611cf7565b611d36610b95565b611ce7565b50634e487b7160e01b600052601160045260246000fd5b600019810191908211611d6157565b611c54611d3b565b9061032a918203918211611d6157565b90611dde611dc392611d8a81611564565b600019810193908411611e33575b600094818692835260076020526040832054868103611deb575b506000526007602052604060002090565b556001600160a01b0316600090815260066020526040902090565b9082526020526040812055565b6001600160a01b0385168085526006602081815260408088208b8952825280882054600094855292825280842085895282528088208390559183526007905290205538611db2565b611e3b611d3b565b611d98565b600880546000199290838101818111611f49575b611ef060009384928184526009602052846040852054911015611f3c575b868452611edf7ff3f7a9fe364faab93b216da50a3214154f22a0a2b415b23a84c8169e8b636ee2958681015490831015611f2f575b88865280837ff3f7a9fe364faab93b216da50a3214154f22a0a2b415b23a84c8169e8b636ee301556000526009602052604060002090565b556000526009602052604060002090565b558254938415611f1b5784019380851015611f0e575b838352015555565b611f16611c0c565b611f06565b634e487b7160e01b83526031600452602483fd5b611f37611c0c565b611ea7565b611f44611c0c565b611e72565b611f51611d3b565b611e54565b15611f5d57565b60405162461bcd60e51b815260206004820152601860248201527f53656e646572206973206e6f7420746865206d696e74657200000000000000006044820152606490fd5b9081603702916037830403611d6157565b600281901b91906001600160fe1b03811603611d6157565b9081600902916009830403611d6157565b908160011b9180830460021490151715611d6157565b81810292918115918404141715611d6157565b6023019081602311611d6157565b60b401908160b411611d6157565b9060028201809211611d6157565b9060208201809211611d6157565b9060018201809211611d6157565b1561205257565b60405162461bcd60e51b815260206004820152601c60248201527f4552433732313a20746f6b656e20616c7265616479206d696e746564000000006044820152606490fd5b6001600160a01b0381169081156121635760008381526002602052604090205461213b91906120d2906001600160a01b031615155b1561204b565b6120db84611cc2565b6120e58482611c8a565b600084815260026020526040902054612108906001600160a01b031615156120cc565b6001600160a01b0381166000908152600360205260409020600181540190556119d8846000526002602052604060002090565b60007fddf252ad1be2c89b69c2b068fc378daa952ba7f163c4a11628f55a4df523b3ef8180a4565b606460405162461bcd60e51b815260206004820152602060248201527f4552433732313a206d696e7420746f20746865207a65726f20616464726573736044820152fd5b6121b081611627565b6001600160a01b03908281831661225a576121cb9150611cc2565b6121d482611e40565b6121dd82611627565b600091838352600460205260408320916bffffffffffffffffffffffff60a01b928381541690551690818352600360205260408320600019815401905561222e846000526002602052604060002090565b9081541690557fddf252ad1be2c89b69c2b068fc378daa952ba7f163c4a11628f55a4df523b3ef8280a4565b61226391611d79565b6121cb565b1561226f57565b60405162461bcd60e51b81526020600482015260096024820152681b9bdd08195e1a5cdd60ba1b6044820152606490fd5b906122b3602092828151948592016102e7565b0190565b906122c182610c13565b6122ce6040519182610bf1565b82815280926122df601f1991610c13565b0190602036910137565b806000917a184f03e93ff9f4daa797ed6e38ed64bf6a1f0100000000000000008082101561241e575b506d04ee2d6d415b85acef81000000008083101561240f575b50662386f26fc1000080831015612400575b506305f5e100808310156123f1575b50612710808310156123e2575b5060648210156123d2575b600a809210156123c8575b6001908160216123808287016122b7565b95860101905b612392575b5050505090565b600019019083906f181899199a1a9b1b9c1cb0b131b232b360811b8282061a8353049182156123c357919082612386565b61238b565b916001019161236f565b9190606460029104910191612364565b60049193920491019138612359565b6008919392049101913861234c565b6010919392049101913861233d565b6020919392049101913861232b565b604093508104915038612312565b604051906060820182811067ffffffffffffffff82111761249d575b604052604082527f6768696a6b6c6d6e6f707172737475767778797a303132333435363738392b2f6040837f4142434445464748494a4b4c4d4e4f505152535455565758595a61626364656660208201520152565b6124a5610b95565b612448565b80511561258a576124b961242c565b6124d56124d06124c98451612021565b6003900490565b611fb3565b916124e76124e28461202f565b6122b7565b92835280815182019060208501935b8282106125385750505060039051068060011461252757600214612518575090565b603d60f81b6000199091015290565b50613d3d60f01b6001199091015290565b9091936004906003809401938451600190603f9082828260121c16880101518553828282600c1c16880101518386015382828260061c16880101516002860153168501015190820153019391906124f6565b5061034061175c565b61259c9061262f565b610340606760405180937f3c7376672077696474683d2234303022206865696768743d223430302220786d60208301527f6c6e733d22687474703a2f2f7777772e77332e6f72672f323030302f737667226040830152601f60f91b60608301526126108151809260206061860191016102e7565b8101651e17b9bb339f60d11b6061820152036047810184520182610bf1565b61264381600052600c602052604060002090565b5460e81b61265090612cbb565b61266482600052600d602052604060002090565b5461266e906122e9565b9161268381600052600d602052604060002090565b5461268d90611fcb565b61269690611d69565b600b90046126a3906122e9565b906126b890600052600e602052604060002090565b546126c2906122e9565b6040516c1e339034b21e9132bcb298911f60991b6020820152938493919291602d85017f3c656c6c69707365207374726f6b652d77696474683d2233222072793d22323981527f2e35222072783d2232392e35222069643d227376675f31222063793d2231353460208201527f2e35222063783d223138312e3522207374726f6b653d2223303030222066696c604082015269361e9111b3333311179f60b11b6060820152606a017f3c656c6c697073652072793d22332e35222072783d22322e35222069643d227381527f76675f33222063793d223135342e35222063783d223137332e3522207374726f60208201527f6b652d77696474683d223322207374726f6b653d2223303030222066696c6c3d60408201526a111198181818181811179f60a91b6060820152606b01631e17b39f60e11b81526004016c1e339034b21e913432b0b2111f60991b8152600d016f3c656c6c697073652066696c6c3d222360801b8152601001612835916122a0565b7f22207374726f6b652d77696474683d2233222063783d223230342e352220637981527f3d223231312e3830303635222069643d227376675f35222072783d22000000006020820152603c0161288a916122a0565b7f222072793d2235312e383030363522207374726f6b653d2223303030222f3e008152601f01631e17b39f60e11b81526004016c1e339034b21e9132bcb299111f60991b8152600d017f3c656c6c69707365207374726f6b652d77696474683d2233222072793d22323981527f2e35222072783d2232392e35222069643d227376675f32222063793d2231363860208201527f2e35222063783d223230392e3522207374726f6b653d2223303030222066696c604082015269361e9111b3333311179f60b11b6060820152606a017f3c656c6c697073652072793d22332e35222072783d2233222069643d2273766781527f5f34222063793d223136392e35222063783d2232303822207374726f6b652d7760208201527f696474683d2233222066696c6c3d222330303030303022207374726f6b653d226040820152661198181811179f60c91b6060820152606701631e17b39f60e11b81526004017f3c6720636c6173733d226d6f75746822207472616e73666f726d3d227472616e8152650e6d8c2e8ca560d31b6020820152602601612a25916122a0565b64161814911f60d91b81526005017f3c7061746820643d224d203133302032343020512031363520323530200000008152601d01612a62916122a0565b7f2032333522207374726f6b653d22626c61636b22207374726f6b652d7769647481527f683d2233222066696c6c3d227472616e73706172656e74222f3e0000000000006020820152603a01631e17b39f60e11b815260040103601f19810182526103409082610bf1565b6001906000198114612add570190565b6122b3611d3b565b60ff166030019060ff8211611d6157565b602190805160011015612b07570190565b6122b3611c0c565b906020918051821015612b2157010190565b612b29611c0c565b010190565b8015612be4578060008281935b612bd0575081612b4a846122b7565b93905b612b575750505090565b612b6090611d52565b9182612bae612ba5612b9560ff600a9586810496808802908882041488151715612bc3575b8103908111612bb6575b16612ae5565b60f81b6001600160f81b03191690565b841a9186612b0f565b539182612b4d565b612bbe611d3b565b612b8f565b612bcb611d3b565b612b85565b92612bdc600a91612acd565b930480612b3b565b50604051612bf181610bac565b60018152600360fc1b602082015290565b8015612c10575b6000190190565b612c18611d3b565b612c09565b60405190612c2a82610bd5565b602a82526030602083016040368237835115612cae575b536078612c4d83612af6565b536029905b60018211612c5f57505090565b80600f612c9b92166010811015612ca1575b6f181899199a1a9b1b9c1cb0b131b232b360811b901a612c918486612b0f565b5360041c91612c02565b90612c52565b612ca9611c0c565b612c71565b612cb6611c0c565b612c41565b90604051612cc881610bac565b600681526020368183013760005b60038110612ce357509150565b612d5590600f85821a8181169160109182841015612d67575b6f181899199a1a9b1b9c1cb0b131b232b360811b9384901a612d2e612d28612d2388611fdc565b61203d565b89612b0f565b5360041c1690811015612d5a575b1a612d4f612d4983611fdc565b85612b0f565b53612acd565b612cd6565b612d62611c0c565b612d3c565b612d6f611c0c565b612cfc56fea264697066735822122099a342ce14e12984e4644f6acdf33c18ac71cd48a4ce6699496bf5223dcc722564736f6c63430008110033",
  "devdoc": {
    "kind": "dev",
    "methods": {
      "approve(address,uint256)": {
        "details": "See {IERC721-approve}."
      },
      "balanceOf(address)": {
        "details": "See {IERC721-balanceOf}."
      },
      "getApproved(uint256)": {
        "details": "See {IERC721-getApproved}."
      },
      "isApprovedForAll(address,address)": {
        "details": "See {IERC721-isApprovedForAll}."
      },
      "name()": {
        "details": "See {IERC721Metadata-name}."
      },
      "owner()": {
        "details": "Returns the address of the current owner."
      },
      "ownerOf(uint256)": {
        "details": "See {IERC721-ownerOf}."
      },
      "renounceOwnership()": {
        "details": "Leaves the contract without owner. It will not be possible to call `onlyOwner` functions. Can only be called by the current owner. NOTE: Renouncing ownership will leave the contract without an owner, thereby disabling any functionality that is only available to the owner."
      },
      "safeTransferFrom(address,address,uint256)": {
        "details": "See {IERC721-safeTransferFrom}."
      },
      "safeTransferFrom(address,address,uint256,bytes)": {
        "details": "See {IERC721-safeTransferFrom}."
      },
      "setApprovalForAll(address,bool)": {
        "details": "See {IERC721-setApprovalForAll}."
      },
      "supportsInterface(bytes4)": {
        "details": "See {IERC165-supportsInterface}."
      },
      "symbol()": {
        "details": "See {IERC721Metadata-symbol}."
      },
      "tokenByIndex(uint256)": {
        "details": "See {IERC721Enumerable-tokenByIndex}."
      },
      "tokenOfOwnerByIndex(address,uint256)": {
        "details": "See {IERC721Enumerable-tokenOfOwnerByIndex}."
      },
      "totalSupply()": {
        "details": "See {IERC721Enumerable-totalSupply}."
      },
      "transferFrom(address,address,uint256)": {
        "details": "See {IERC721-transferFrom}."
      },
      "transferOwnership(address)": {
        "details": "Transfers ownership of the contract to a new account (`newOwner`). Can only be called by the current owner."
      }
    },
    "version": 1
  },
  "userdoc": {
    "kind": "user",
    "methods": {},
    "version": 1
  },
  "storageLayout": {
    "storage": [
      {
        "astId": 389,
        "contract": "contracts/Loogie.sol:Loogie",
        "label": "_name",
        "offset": 0,
        "slot": "0",
        "type": "t_string_storage"
      },
      {
        "astId": 391,
        "contract": "contracts/Loogie.sol:Loogie",
        "label": "_symbol",
        "offset": 0,
        "slot": "1",
        "type": "t_string_storage"
      },
      {
        "astId": 395,
        "contract": "contracts/Loogie.sol:Loogie",
        "label": "_owners",
        "offset": 0,
        "slot": "2",
        "type": "t_mapping(t_uint256,t_address)"
      },
      {
        "astId": 399,
        "contract": "contracts/Loogie.sol:Loogie",
        "label": "_balances",
        "offset": 0,
        "slot": "3",
        "type": "t_mapping(t_address,t_uint256)"
      },
      {
        "astId": 403,
        "contract": "contracts/Loogie.sol:Loogie",
        "label": "_tokenApprovals",
        "offset": 0,
        "slot": "4",
        "type": "t_mapping(t_uint256,t_address)"
      },
      {
        "astId": 409,
        "contract": "contracts/Loogie.sol:Loogie",
        "label": "_operatorApprovals",
        "offset": 0,
        "slot": "5",
        "type": "t_mapping(t_address,t_mapping(t_address,t_bool))"
      },
      {
        "astId": 1469,
        "contract": "contracts/Loogie.sol:Loogie",
        "label": "_ownedTokens",
        "offset": 0,
        "slot": "6",
        "type": "t_mapping(t_address,t_mapping(t_uint256,t_uint256))"
      },
      {
        "astId": 1473,
        "contract": "contracts/Loogie.sol:Loogie",
        "label": "_ownedTokensIndex",
        "offset": 0,
        "slot": "7",
        "type": "t_mapping(t_uint256,t_uint256)"
      },
      {
        "astId": 1476,
        "contract": "contracts/Loogie.sol:Loogie",
        "label": "_allTokens",
        "offset": 0,
        "slot": "8",
        "type": "t_array(t_uint256)dyn_storage"
      },
      {
        "astId": 1480,
        "contract": "contracts/Loogie.sol:Loogie",
        "label": "_allTokensIndex",
        "offset": 0,
        "slot": "9",
        "type": "t_mapping(t_uint256,t_uint256)"
      },
      {
        "astId": 7,
        "contract": "contracts/Loogie.sol:Loogie",
        "label": "_owner",
        "offset": 0,
        "slot": "10",
        "type": "t_address"
      },
      {
        "astId": 3677,
        "contract": "contracts/Loogie.sol:Loogie",
        "label": "_tokenIds",
        "offset": 0,
        "slot": "11",
        "type": "t_struct(Counter)2224_storage"
      },
      {
        "astId": 3681,
        "contract": "contracts/Loogie.sol:Loogie",
        "label": "color",
        "offset": 0,
        "slot": "12",
        "type": "t_mapping(t_uint256,t_bytes3)"
      },
      {
        "astId": 3685,
        "contract": "contracts/Loogie.sol:Loogie",
        "label": "chubbiness",
        "offset": 0,
        "slot": "13",
        "type": "t_mapping(t_uint256,t_uint256)"
      },
      {
        "astId": 3689,
        "contract": "contracts/Loogie.sol:Loogie",
        "label": "mouthLength",
        "offset": 0,
        "slot": "14",
        "type": "t_mapping(t_uint256,t_uint256)"
      },
      {
        "astId": 3691,
        "contract": "contracts/Loogie.sol:Loogie",
        "label": "minter",
        "offset": 0,
        "slot": "15",
        "type": "t_address"
      }
    ],
    "types": {
      "t_address": {
        "encoding": "inplace",
        "label": "address",
        "numberOfBytes": "20"
      },
      "t_array(t_uint256)dyn_storage": {
        "base": "t_uint256",
        "encoding": "dynamic_array",
        "label": "uint256[]",
        "numberOfBytes": "32"
      },
      "t_bool": {
        "encoding": "inplace",
        "label": "bool",
        "numberOfBytes": "1"
      },
      "t_bytes3": {
        "encoding": "inplace",
        "label": "bytes3",
        "numberOfBytes": "3"
      },
      "t_mapping(t_address,t_bool)": {
        "encoding": "mapping",
        "key": "t_address",
        "label": "mapping(address => bool)",
        "numberOfBytes": "32",
        "value": "t_bool"
      },
      "t_mapping(t_address,t_mapping(t_address,t_bool))": {
        "encoding": "mapping",
        "key": "t_address",
        "label": "mapping(address => mapping(address => bool))",
        "numberOfBytes": "32",
        "value": "t_mapping(t_address,t_bool)"
      },
      "t_mapping(t_address,t_mapping(t_uint256,t_uint256))": {
        "encoding": "mapping",
        "key": "t_address",
        "label": "mapping(address => mapping(uint256 => uint256))",
        "numberOfBytes": "32",
        "value": "t_mapping(t_uint256,t_uint256)"
      },
      "t_mapping(t_address,t_uint256)": {
        "encoding": "mapping",
        "key": "t_address",
        "label": "mapping(address => uint256)",
        "numberOfBytes": "32",
        "value": "t_uint256"
      },
      "t_mapping(t_uint256,t_address)": {
        "encoding": "mapping",
        "key": "t_uint256",
        "label": "mapping(uint256 => address)",
        "numberOfBytes": "32",
        "value": "t_address"
      },
      "t_mapping(t_uint256,t_bytes3)": {
        "encoding": "mapping",
        "key": "t_uint256",
        "label": "mapping(uint256 => bytes3)",
        "numberOfBytes": "32",
        "value": "t_bytes3"
      },
      "t_mapping(t_uint256,t_uint256)": {
        "encoding": "mapping",
        "key": "t_uint256",
        "label": "mapping(uint256 => uint256)",
        "numberOfBytes": "32",
        "value": "t_uint256"
      },
      "t_string_storage": {
        "encoding": "bytes",
        "label": "string",
        "numberOfBytes": "32"
      },
      "t_struct(Counter)2224_storage": {
        "encoding": "inplace",
        "label": "struct Counters.Counter",
        "members": [
          {
            "astId": 2223,
            "contract": "contracts/Loogie.sol:Loogie",
            "label": "_value",
            "offset": 0,
            "slot": "0",
            "type": "t_uint256"
          }
        ],
        "numberOfBytes": "32"
      },
      "t_uint256": {
        "encoding": "inplace",
        "label": "uint256",
        "numberOfBytes": "32"
      }
    }
  }
}